{
  "_format": "hh-sol-artifact-1",
  "contractName": "MRToken",
  "sourceName": "contracts/MRToken.sol",
  "abi": [
    {
      "inputs": [
        {
          "internalType": "address",
          "name": "initialOwner",
          "type": "address"
        }
      ],
      "stateMutability": "nonpayable",
      "type": "constructor"
    },
    {
      "inputs": [],
      "name": "ECDSAInvalidSignature",
      "type": "error"
    },
    {
      "inputs": [
        {
          "internalType": "uint256",
          "name": "length",
          "type": "uint256"
        }
      ],
      "name": "ECDSAInvalidSignatureLength",
      "type": "error"
    },
    {
      "inputs": [
        {
          "internalType": "bytes32",
          "name": "s",
          "type": "bytes32"
        }
      ],
      "name": "ECDSAInvalidSignatureS",
      "type": "error"
    },
    {
      "inputs": [
        {
          "internalType": "uint256",
          "name": "increasedSupply",
          "type": "uint256"
        },
        {
          "internalType": "uint256",
          "name": "cap",
          "type": "uint256"
        }
      ],
      "name": "ERC20ExceededCap",
      "type": "error"
    },
    {
      "inputs": [
        {
          "internalType": "address",
          "name": "spender",
          "type": "address"
        },
        {
          "internalType": "uint256",
          "name": "allowance",
          "type": "uint256"
        },
        {
          "internalType": "uint256",
          "name": "needed",
          "type": "uint256"
        }
      ],
      "name": "ERC20InsufficientAllowance",
      "type": "error"
    },
    {
      "inputs": [
        {
          "internalType": "address",
          "name": "sender",
          "type": "address"
        },
        {
          "internalType": "uint256",
          "name": "balance",
          "type": "uint256"
        },
        {
          "internalType": "uint256",
          "name": "needed",
          "type": "uint256"
        }
      ],
      "name": "ERC20InsufficientBalance",
      "type": "error"
    },
    {
      "inputs": [
        {
          "internalType": "address",
          "name": "approver",
          "type": "address"
        }
      ],
      "name": "ERC20InvalidApprover",
      "type": "error"
    },
    {
      "inputs": [
        {
          "internalType": "uint256",
          "name": "cap",
          "type": "uint256"
        }
      ],
      "name": "ERC20InvalidCap",
      "type": "error"
    },
    {
      "inputs": [
        {
          "internalType": "address",
          "name": "receiver",
          "type": "address"
        }
      ],
      "name": "ERC20InvalidReceiver",
      "type": "error"
    },
    {
      "inputs": [
        {
          "internalType": "address",
          "name": "sender",
          "type": "address"
        }
      ],
      "name": "ERC20InvalidSender",
      "type": "error"
    },
    {
      "inputs": [
        {
          "internalType": "address",
          "name": "spender",
          "type": "address"
        }
      ],
      "name": "ERC20InvalidSpender",
      "type": "error"
    },
    {
      "inputs": [
        {
          "internalType": "uint256",
          "name": "deadline",
          "type": "uint256"
        }
      ],
      "name": "ERC2612ExpiredSignature",
      "type": "error"
    },
    {
      "inputs": [
        {
          "internalType": "address",
          "name": "signer",
          "type": "address"
        },
        {
          "internalType": "address",
          "name": "owner",
          "type": "address"
        }
      ],
      "name": "ERC2612InvalidSigner",
      "type": "error"
    },
    {
      "inputs": [
        {
          "internalType": "address",
          "name": "account",
          "type": "address"
        },
        {
          "internalType": "uint256",
          "name": "currentNonce",
          "type": "uint256"
        }
      ],
      "name": "InvalidAccountNonce",
      "type": "error"
    },
    {
      "inputs": [],
      "name": "InvalidShortString",
      "type": "error"
    },
    {
      "inputs": [
        {
          "internalType": "address",
          "name": "owner",
          "type": "address"
        }
      ],
      "name": "OwnableInvalidOwner",
      "type": "error"
    },
    {
      "inputs": [
        {
          "internalType": "address",
          "name": "account",
          "type": "address"
        }
      ],
      "name": "OwnableUnauthorizedAccount",
      "type": "error"
    },
    {
      "inputs": [
        {
          "internalType": "string",
          "name": "str",
          "type": "string"
        }
      ],
      "name": "StringTooLong",
      "type": "error"
    },
    {
      "anonymous": false,
      "inputs": [
        {
          "indexed": true,
          "internalType": "address",
          "name": "owner",
          "type": "address"
        },
        {
          "indexed": true,
          "internalType": "address",
          "name": "spender",
          "type": "address"
        },
        {
          "indexed": false,
          "internalType": "uint256",
          "name": "value",
          "type": "uint256"
        }
      ],
      "name": "Approval",
      "type": "event"
    },
    {
      "anonymous": false,
      "inputs": [],
      "name": "EIP712DomainChanged",
      "type": "event"
    },
    {
      "anonymous": false,
      "inputs": [
        {
          "indexed": true,
          "internalType": "address",
          "name": "previousOwner",
          "type": "address"
        },
        {
          "indexed": true,
          "internalType": "address",
          "name": "newOwner",
          "type": "address"
        }
      ],
      "name": "OwnershipTransferred",
      "type": "event"
    },
    {
      "anonymous": false,
      "inputs": [
        {
          "indexed": true,
          "internalType": "address",
          "name": "from",
          "type": "address"
        },
        {
          "indexed": true,
          "internalType": "address",
          "name": "to",
          "type": "address"
        },
        {
          "indexed": false,
          "internalType": "uint256",
          "name": "value",
          "type": "uint256"
        }
      ],
      "name": "Transfer",
      "type": "event"
    },
    {
      "inputs": [],
      "name": "DOMAIN_SEPARATOR",
      "outputs": [
        {
          "internalType": "bytes32",
          "name": "",
          "type": "bytes32"
        }
      ],
      "stateMutability": "view",
      "type": "function"
    },
    {
      "inputs": [
        {
          "internalType": "address",
          "name": "owner",
          "type": "address"
        },
        {
          "internalType": "address",
          "name": "spender",
          "type": "address"
        }
      ],
      "name": "allowance",
      "outputs": [
        {
          "internalType": "uint256",
          "name": "",
          "type": "uint256"
        }
      ],
      "stateMutability": "view",
      "type": "function"
    },
    {
      "inputs": [
        {
          "internalType": "address",
          "name": "spender",
          "type": "address"
        },
        {
          "internalType": "uint256",
          "name": "value",
          "type": "uint256"
        }
      ],
      "name": "approve",
      "outputs": [
        {
          "internalType": "bool",
          "name": "",
          "type": "bool"
        }
      ],
      "stateMutability": "nonpayable",
      "type": "function"
    },
    {
      "inputs": [
        {
          "internalType": "address",
          "name": "account",
          "type": "address"
        }
      ],
      "name": "balanceOf",
      "outputs": [
        {
          "internalType": "uint256",
          "name": "",
          "type": "uint256"
        }
      ],
      "stateMutability": "view",
      "type": "function"
    },
    {
      "inputs": [],
      "name": "cap",
      "outputs": [
        {
          "internalType": "uint256",
          "name": "",
          "type": "uint256"
        }
      ],
      "stateMutability": "view",
      "type": "function"
    },
    {
      "inputs": [],
      "name": "decimals",
      "outputs": [
        {
          "internalType": "uint8",
          "name": "",
          "type": "uint8"
        }
      ],
      "stateMutability": "view",
      "type": "function"
    },
    {
      "inputs": [],
      "name": "eip712Domain",
      "outputs": [
        {
          "internalType": "bytes1",
          "name": "fields",
          "type": "bytes1"
        },
        {
          "internalType": "string",
          "name": "name",
          "type": "string"
        },
        {
          "internalType": "string",
          "name": "version",
          "type": "string"
        },
        {
          "internalType": "uint256",
          "name": "chainId",
          "type": "uint256"
        },
        {
          "internalType": "address",
          "name": "verifyingContract",
          "type": "address"
        },
        {
          "internalType": "bytes32",
          "name": "salt",
          "type": "bytes32"
        },
        {
          "internalType": "uint256[]",
          "name": "extensions",
          "type": "uint256[]"
        }
      ],
      "stateMutability": "view",
      "type": "function"
    },
    {
      "inputs": [
        {
          "internalType": "address",
          "name": "_to",
          "type": "address"
        },
        {
          "internalType": "uint256",
          "name": "_amount",
          "type": "uint256"
        }
      ],
      "name": "mint",
      "outputs": [],
      "stateMutability": "nonpayable",
      "type": "function"
    },
    {
      "inputs": [],
      "name": "name",
      "outputs": [
        {
          "internalType": "string",
          "name": "",
          "type": "string"
        }
      ],
      "stateMutability": "view",
      "type": "function"
    },
    {
      "inputs": [
        {
          "internalType": "address",
          "name": "owner",
          "type": "address"
        }
      ],
      "name": "nonces",
      "outputs": [
        {
          "internalType": "uint256",
          "name": "",
          "type": "uint256"
        }
      ],
      "stateMutability": "view",
      "type": "function"
    },
    {
      "inputs": [],
      "name": "owner",
      "outputs": [
        {
          "internalType": "address",
          "name": "",
          "type": "address"
        }
      ],
      "stateMutability": "view",
      "type": "function"
    },
    {
      "inputs": [
        {
          "internalType": "address",
          "name": "owner",
          "type": "address"
        },
        {
          "internalType": "address",
          "name": "spender",
          "type": "address"
        },
        {
          "internalType": "uint256",
          "name": "value",
          "type": "uint256"
        },
        {
          "internalType": "uint256",
          "name": "deadline",
          "type": "uint256"
        },
        {
          "internalType": "uint8",
          "name": "v",
          "type": "uint8"
        },
        {
          "internalType": "bytes32",
          "name": "r",
          "type": "bytes32"
        },
        {
          "internalType": "bytes32",
          "name": "s",
          "type": "bytes32"
        }
      ],
      "name": "permit",
      "outputs": [],
      "stateMutability": "nonpayable",
      "type": "function"
    },
    {
      "inputs": [],
      "name": "renounceOwnership",
      "outputs": [],
      "stateMutability": "nonpayable",
      "type": "function"
    },
    {
      "inputs": [],
      "name": "symbol",
      "outputs": [
        {
          "internalType": "string",
          "name": "",
          "type": "string"
        }
      ],
      "stateMutability": "view",
      "type": "function"
    },
    {
      "inputs": [],
      "name": "totalSupply",
      "outputs": [
        {
          "internalType": "uint256",
          "name": "",
          "type": "uint256"
        }
      ],
      "stateMutability": "view",
      "type": "function"
    },
    {
      "inputs": [
        {
          "internalType": "address",
          "name": "to",
          "type": "address"
        },
        {
          "internalType": "uint256",
          "name": "value",
          "type": "uint256"
        }
      ],
      "name": "transfer",
      "outputs": [
        {
          "internalType": "bool",
          "name": "",
          "type": "bool"
        }
      ],
      "stateMutability": "nonpayable",
      "type": "function"
    },
    {
      "inputs": [
        {
          "internalType": "address",
          "name": "from",
          "type": "address"
        },
        {
          "internalType": "address",
          "name": "to",
          "type": "address"
        },
        {
          "internalType": "uint256",
          "name": "value",
          "type": "uint256"
        }
      ],
      "name": "transferFrom",
      "outputs": [
        {
          "internalType": "bool",
          "name": "",
          "type": "bool"
        }
      ],
      "stateMutability": "nonpayable",
      "type": "function"
    },
    {
      "inputs": [
        {
          "internalType": "address",
          "name": "newOwner",
          "type": "address"
        }
      ],
      "name": "transferOwnership",
      "outputs": [],
      "stateMutability": "nonpayable",
      "type": "function"
    }
  ],
  "bytecode": "0x6101806040523480156200001257600080fd5b50604051620030db380380620030db8339818101604052810190620000389190620008f8565b69d3c21bcecceda10000006040518060400160405280600781526020017f4d52546f6b656e00000000000000000000000000000000000000000000000000815250806040518060400160405280600181526020017f3100000000000000000000000000000000000000000000000000000000000000815250846040518060400160405280600781526020017f4d52546f6b656e000000000000000000000000000000000000000000000000008152506040518060400160405280600381526020017f4d5254000000000000000000000000000000000000000000000000000000000081525081600390816200012e919062000ba4565b50806004908162000140919062000ba4565b505050600073ffffffffffffffffffffffffffffffffffffffff168173ffffffffffffffffffffffffffffffffffffffff1603620001b85760006040517f1e4fbdf7000000000000000000000000000000000000000000000000000000008152600401620001af919062000c9c565b60405180910390fd5b620001c981620002f060201b60201c565b50620001e0600683620003b660201b90919060201c565b6101208181525050620001fe600782620003b660201b90919060201c565b6101408181525050818051906020012060e08181525050808051906020012061010081815250504660a081815250506200023d6200040e60201b60201c565b608081815250503073ffffffffffffffffffffffffffffffffffffffff1660c08173ffffffffffffffffffffffffffffffffffffffff168152505050505060008103620002c45760006040517f392e1e27000000000000000000000000000000000000000000000000000000008152600401620002bb919062000cfc565b60405180910390fd5b80610160818152505050620002e933683635c9adc5dea000006200046b60201b60201c565b5062000fe8565b6000600560009054906101000a900473ffffffffffffffffffffffffffffffffffffffff16905081600560006101000a81548173ffffffffffffffffffffffffffffffffffffffff021916908373ffffffffffffffffffffffffffffffffffffffff1602179055508173ffffffffffffffffffffffffffffffffffffffff168173ffffffffffffffffffffffffffffffffffffffff167f8be0079c531659141344cd1fd0a4f28419497f9722a3daafe3b4186f6b6457e060405160405180910390a35050565b6000602083511015620003dc57620003d483620004f860201b60201c565b905062000408565b82620003ee836200056560201b60201c565b6000019081620003ff919062000ba4565b5060ff60001b90505b92915050565b60007f8b73c3c69bb8fe3d512ecc4cf759cc79239f7b179b0ffacaa9a75d522b39400f60e0516101005146306040516020016200045095949392919062000d45565b60405160208183030381529060405280519060200120905090565b600073ffffffffffffffffffffffffffffffffffffffff168273ffffffffffffffffffffffffffffffffffffffff1603620004e05760006040517fec442f05000000000000000000000000000000000000000000000000000000008152600401620004d7919062000c9c565b60405180910390fd5b620004f4600083836200056f60201b60201c565b5050565b600080829050601f815111156200054857826040517f305a27a90000000000000000000000000000000000000000000000000000000081526004016200053f919062000e31565b60405180910390fd5b805181620005569062000e87565b60001c1760001b915050919050565b6000819050919050565b620005828383836200058760201b60201c565b505050565b6200059a8383836200064960201b60201c565b600073ffffffffffffffffffffffffffffffffffffffff168373ffffffffffffffffffffffffffffffffffffffff160362000644576000620005e16200087960201b60201c565b90506000620005f56200088460201b60201c565b905081811115620006415780826040517f9e79f8540000000000000000000000000000000000000000000000000000000081526004016200063892919062000ef7565b60405180910390fd5b50505b505050565b600073ffffffffffffffffffffffffffffffffffffffff168373ffffffffffffffffffffffffffffffffffffffff16036200069f57806002600082825462000692919062000f53565b9250508190555062000775565b60008060008573ffffffffffffffffffffffffffffffffffffffff1673ffffffffffffffffffffffffffffffffffffffff168152602001908152602001600020549050818110156200072e578381836040517fe450d38c000000000000000000000000000000000000000000000000000000008152600401620007259392919062000f8e565b60405180910390fd5b8181036000808673ffffffffffffffffffffffffffffffffffffffff1673ffffffffffffffffffffffffffffffffffffffff16815260200190815260200160002081905550505b600073ffffffffffffffffffffffffffffffffffffffff168273ffffffffffffffffffffffffffffffffffffffff1603620007c057806002600082825403925050819055506200080d565b806000808473ffffffffffffffffffffffffffffffffffffffff1673ffffffffffffffffffffffffffffffffffffffff168152602001908152602001600020600082825401925050819055505b8173ffffffffffffffffffffffffffffffffffffffff168373ffffffffffffffffffffffffffffffffffffffff167fddf252ad1be2c89b69c2b068fc378daa952ba7f163c4a11628f55a4df523b3ef836040516200086c919062000fcb565b60405180910390a3505050565b600061016051905090565b6000600254905090565b600080fd5b600073ffffffffffffffffffffffffffffffffffffffff82169050919050565b6000620008c08262000893565b9050919050565b620008d281620008b3565b8114620008de57600080fd5b50565b600081519050620008f281620008c7565b92915050565b6000602082840312156200091157620009106200088e565b5b60006200092184828501620008e1565b91505092915050565b600081519050919050565b7f4e487b7100000000000000000000000000000000000000000000000000000000600052604160045260246000fd5b7f4e487b7100000000000000000000000000000000000000000000000000000000600052602260045260246000fd5b60006002820490506001821680620009ac57607f821691505b602082108103620009c257620009c162000964565b5b50919050565b60008190508160005260206000209050919050565b60006020601f8301049050919050565b600082821b905092915050565b60006008830262000a2c7fffffffffffffffffffffffffffffffffffffffffffffffffffffffffffffffff82620009ed565b62000a388683620009ed565b95508019841693508086168417925050509392505050565b6000819050919050565b6000819050919050565b600062000a8562000a7f62000a798462000a50565b62000a5a565b62000a50565b9050919050565b6000819050919050565b62000aa18362000a64565b62000ab962000ab08262000a8c565b848454620009fa565b825550505050565b600090565b62000ad062000ac1565b62000add81848462000a96565b505050565b5b8181101562000b055762000af960008262000ac6565b60018101905062000ae3565b5050565b601f82111562000b545762000b1e81620009c8565b62000b2984620009dd565b8101602085101562000b39578190505b62000b5162000b4885620009dd565b83018262000ae2565b50505b505050565b600082821c905092915050565b600062000b796000198460080262000b59565b1980831691505092915050565b600062000b94838362000b66565b9150826002028217905092915050565b62000baf826200092a565b67ffffffffffffffff81111562000bcb5762000bca62000935565b5b62000bd7825462000993565b62000be482828562000b09565b600060209050601f83116001811462000c1c576000841562000c07578287015190505b62000c13858262000b86565b86555062000c83565b601f19841662000c2c86620009c8565b60005b8281101562000c565784890151825560018201915060208501945060208101905062000c2f565b8683101562000c76578489015162000c72601f89168262000b66565b8355505b6001600288020188555050505b505050505050565b62000c9681620008b3565b82525050565b600060208201905062000cb3600083018462000c8b565b92915050565b6000819050919050565b600062000ce462000cde62000cd88462000cb9565b62000a5a565b62000a50565b9050919050565b62000cf68162000cc3565b82525050565b600060208201905062000d13600083018462000ceb565b92915050565b6000819050919050565b62000d2e8162000d19565b82525050565b62000d3f8162000a50565b82525050565b600060a08201905062000d5c600083018862000d23565b62000d6b602083018762000d23565b62000d7a604083018662000d23565b62000d89606083018562000d34565b62000d98608083018462000c8b565b9695505050505050565b600082825260208201905092915050565b60005b8381101562000dd357808201518184015260208101905062000db6565b60008484015250505050565b6000601f19601f8301169050919050565b600062000dfd826200092a565b62000e09818562000da2565b935062000e1b81856020860162000db3565b62000e268162000ddf565b840191505092915050565b6000602082019050818103600083015262000e4d818462000df0565b905092915050565b600081519050919050565b6000819050602082019050919050565b600062000e7e825162000d19565b80915050919050565b600062000e948262000e55565b8262000ea08462000e60565b905062000ead8162000e70565b9250602082101562000ef05762000eeb7fffffffffffffffffffffffffffffffffffffffffffffffffffffffffffffffff83602003600802620009ed565b831692505b5050919050565b600060408201905062000f0e600083018562000d34565b62000f1d602083018462000d34565b9392505050565b7f4e487b7100000000000000000000000000000000000000000000000000000000600052601160045260246000fd5b600062000f608262000a50565b915062000f6d8362000a50565b925082820190508082111562000f885762000f8762000f24565b5b92915050565b600060608201905062000fa5600083018662000c8b565b62000fb4602083018562000d34565b62000fc3604083018462000d34565b949350505050565b600060208201905062000fe2600083018462000d34565b92915050565b60805160a05160c05160e0516101005161012051610140516101605161208d6200104e600039600061048a01526000610dd501526000610d9a015260006110d5015260006110b401526000610ac601526000610b1c01526000610b45015261208d6000f3fe608060405234801561001057600080fd5b50600436106101165760003560e01c8063715018a6116100a257806395d89b411161007157806395d89b41146102d9578063a9059cbb146102f7578063d505accf14610327578063dd62ed3e14610343578063f2fde38b1461037357610116565b8063715018a61461025d5780637ecebe001461026757806384b0196e146102975780638da5cb5b146102bb57610116565b8063313ce567116100e9578063313ce567146101b7578063355274ea146101d55780633644e515146101f357806340c10f191461021157806370a082311461022d57610116565b806306fdde031461011b578063095ea7b31461013957806318160ddd1461016957806323b872dd14610187575b600080fd5b61012361038f565b604051610130919061188d565b60405180910390f35b610153600480360381019061014e9190611948565b610421565b60405161016091906119a3565b60405180910390f35b610171610444565b60405161017e91906119cd565b60405180910390f35b6101a1600480360381019061019c91906119e8565b61044e565b6040516101ae91906119a3565b60405180910390f35b6101bf61047d565b6040516101cc9190611a57565b60405180910390f35b6101dd610486565b6040516101ea91906119cd565b60405180910390f35b6101fb6104ae565b6040516102089190611a8b565b60405180910390f35b61022b60048036038101906102269190611948565b6104bd565b005b61024760048036038101906102429190611aa6565b6104d3565b60405161025491906119cd565b60405180910390f35b61026561051b565b005b610281600480360381019061027c9190611aa6565b61052f565b60405161028e91906119cd565b60405180910390f35b61029f610541565b6040516102b29796959493929190611bdb565b60405180910390f35b6102c36105eb565b6040516102d09190611c5f565b60405180910390f35b6102e1610615565b6040516102ee919061188d565b60405180910390f35b610311600480360381019061030c9190611948565b6106a7565b60405161031e91906119a3565b60405180910390f35b610341600480360381019061033c9190611cd2565b6106ca565b005b61035d60048036038101906103589190611d74565b610812565b60405161036a91906119cd565b60405180910390f35b61038d60048036038101906103889190611aa6565b610899565b005b60606003805461039e90611de3565b80601f01602080910402602001604051908101604052809291908181526020018280546103ca90611de3565b80156104175780601f106103ec57610100808354040283529160200191610417565b820191906000526020600020905b8154815290600101906020018083116103fa57829003601f168201915b5050505050905090565b60008061042c61091f565b9050610439818585610927565b600191505092915050565b6000600254905090565b60008061045961091f565b9050610466858285610939565b6104718585856109ce565b60019150509392505050565b60006012905090565b60007f0000000000000000000000000000000000000000000000000000000000000000905090565b60006104b8610ac2565b905090565b6104c5610b79565b6104cf8282610c00565b5050565b60008060008373ffffffffffffffffffffffffffffffffffffffff1673ffffffffffffffffffffffffffffffffffffffff168152602001908152602001600020549050919050565b610523610b79565b61052d6000610c82565b565b600061053a82610d48565b9050919050565b600060608060008060006060610555610d91565b61055d610dcc565b46306000801b600067ffffffffffffffff81111561057e5761057d611e14565b5b6040519080825280602002602001820160405280156105ac5781602001602082028036833780820191505090505b507f0f00000000000000000000000000000000000000000000000000000000000000959493929190965096509650965096509650965090919293949596565b6000600560009054906101000a900473ffffffffffffffffffffffffffffffffffffffff16905090565b60606004805461062490611de3565b80601f016020809104026020016040519081016040528092919081815260200182805461065090611de3565b801561069d5780601f106106725761010080835404028352916020019161069d565b820191906000526020600020905b81548152906001019060200180831161068057829003601f168201915b5050505050905090565b6000806106b261091f565b90506106bf8185856109ce565b600191505092915050565b8342111561070f57836040517f6279130200000000000000000000000000000000000000000000000000000000815260040161070691906119cd565b60405180910390fd5b60007f6e71edae12b1b97f4d1f60370fef10105fa2faae0126114a169c64845d6126c988888861073e8c610e07565b8960405160200161075496959493929190611e43565b604051602081830303815290604052805190602001209050600061077782610e5e565b9050600061078782878787610e78565b90508973ffffffffffffffffffffffffffffffffffffffff168173ffffffffffffffffffffffffffffffffffffffff16146107fb57808a6040517f4b800e460000000000000000000000000000000000000000000000000000000081526004016107f2929190611ea4565b60405180910390fd5b6108068a8a8a610927565b50505050505050505050565b6000600160008473ffffffffffffffffffffffffffffffffffffffff1673ffffffffffffffffffffffffffffffffffffffff16815260200190815260200160002060008373ffffffffffffffffffffffffffffffffffffffff1673ffffffffffffffffffffffffffffffffffffffff16815260200190815260200160002054905092915050565b6108a1610b79565b600073ffffffffffffffffffffffffffffffffffffffff168173ffffffffffffffffffffffffffffffffffffffff16036109135760006040517f1e4fbdf700000000000000000000000000000000000000000000000000000000815260040161090a9190611c5f565b60405180910390fd5b61091c81610c82565b50565b600033905090565b6109348383836001610ea8565b505050565b60006109458484610812565b90507fffffffffffffffffffffffffffffffffffffffffffffffffffffffffffffffff8110156109c857818110156109b8578281836040517ffb8f41b20000000000000000000000000000000000000000000000000000000081526004016109af93929190611ecd565b60405180910390fd5b6109c784848484036000610ea8565b5b50505050565b600073ffffffffffffffffffffffffffffffffffffffff168373ffffffffffffffffffffffffffffffffffffffff1603610a405760006040517f96c6fd1e000000000000000000000000000000000000000000000000000000008152600401610a379190611c5f565b60405180910390fd5b600073ffffffffffffffffffffffffffffffffffffffff168273ffffffffffffffffffffffffffffffffffffffff1603610ab25760006040517fec442f05000000000000000000000000000000000000000000000000000000008152600401610aa99190611c5f565b60405180910390fd5b610abd83838361107f565b505050565b60007f000000000000000000000000000000000000000000000000000000000000000073ffffffffffffffffffffffffffffffffffffffff163073ffffffffffffffffffffffffffffffffffffffff16148015610b3e57507f000000000000000000000000000000000000000000000000000000000000000046145b15610b6b577f00000000000000000000000000000000000000000000000000000000000000009050610b76565b610b7361108f565b90505b90565b610b8161091f565b73ffffffffffffffffffffffffffffffffffffffff16610b9f6105eb565b73ffffffffffffffffffffffffffffffffffffffff1614610bfe57610bc261091f565b6040517f118cdaa7000000000000000000000000000000000000000000000000000000008152600401610bf59190611c5f565b60405180910390fd5b565b600073ffffffffffffffffffffffffffffffffffffffff168273ffffffffffffffffffffffffffffffffffffffff1603610c725760006040517fec442f05000000000000000000000000000000000000000000000000000000008152600401610c699190611c5f565b60405180910390fd5b610c7e6000838361107f565b5050565b6000600560009054906101000a900473ffffffffffffffffffffffffffffffffffffffff16905081600560006101000a81548173ffffffffffffffffffffffffffffffffffffffff021916908373ffffffffffffffffffffffffffffffffffffffff1602179055508173ffffffffffffffffffffffffffffffffffffffff168173ffffffffffffffffffffffffffffffffffffffff167f8be0079c531659141344cd1fd0a4f28419497f9722a3daafe3b4186f6b6457e060405160405180910390a35050565b6000600860008373ffffffffffffffffffffffffffffffffffffffff1673ffffffffffffffffffffffffffffffffffffffff168152602001908152602001600020549050919050565b6060610dc760067f000000000000000000000000000000000000000000000000000000000000000061112590919063ffffffff16565b905090565b6060610e0260077f000000000000000000000000000000000000000000000000000000000000000061112590919063ffffffff16565b905090565b6000600860008373ffffffffffffffffffffffffffffffffffffffff1673ffffffffffffffffffffffffffffffffffffffff1681526020019081526020016000206000815480929190600101919050559050919050565b6000610e71610e6b610ac2565b836111d5565b9050919050565b600080600080610e8a88888888611216565b925092509250610e9a828261130a565b829350505050949350505050565b600073ffffffffffffffffffffffffffffffffffffffff168473ffffffffffffffffffffffffffffffffffffffff1603610f1a5760006040517fe602df05000000000000000000000000000000000000000000000000000000008152600401610f119190611c5f565b60405180910390fd5b600073ffffffffffffffffffffffffffffffffffffffff168373ffffffffffffffffffffffffffffffffffffffff1603610f8c5760006040517f94280d62000000000000000000000000000000000000000000000000000000008152600401610f839190611c5f565b60405180910390fd5b81600160008673ffffffffffffffffffffffffffffffffffffffff1673ffffffffffffffffffffffffffffffffffffffff16815260200190815260200160002060008573ffffffffffffffffffffffffffffffffffffffff1673ffffffffffffffffffffffffffffffffffffffff168152602001908152602001600020819055508015611079578273ffffffffffffffffffffffffffffffffffffffff168473ffffffffffffffffffffffffffffffffffffffff167f8c5be1e5ebec7d5bd14f71427d1e84f3dd0314c0f7b2291e5b200ac8c7c3b9258460405161107091906119cd565b60405180910390a35b50505050565b61108a83838361146e565b505050565b60007f8b73c3c69bb8fe3d512ecc4cf759cc79239f7b179b0ffacaa9a75d522b39400f7f00000000000000000000000000000000000000000000000000000000000000007f0000000000000000000000000000000000000000000000000000000000000000463060405160200161110a959493929190611f04565b60405160208183030381529060405280519060200120905090565b606060ff60001b83146111425761113b83611514565b90506111cf565b81805461114e90611de3565b80601f016020809104026020016040519081016040528092919081815260200182805461117a90611de3565b80156111c75780601f1061119c576101008083540402835291602001916111c7565b820191906000526020600020905b8154815290600101906020018083116111aa57829003601f168201915b505050505090505b92915050565b60006040517f190100000000000000000000000000000000000000000000000000000000000081528360028201528260228201526042812091505092915050565b60008060007f7fffffffffffffffffffffffffffffff5d576e7357a4501ddfe92f46681b20a08460001c1115611256576000600385925092509250611300565b60006001888888886040516000815260200160405260405161127b9493929190611f57565b6020604051602081039080840390855afa15801561129d573d6000803e3d6000fd5b505050602060405103519050600073ffffffffffffffffffffffffffffffffffffffff168173ffffffffffffffffffffffffffffffffffffffff16036112f157600060016000801b93509350935050611300565b8060008060001b935093509350505b9450945094915050565b6000600381111561131e5761131d611f9c565b5b82600381111561133157611330611f9c565b5b031561146a576001600381111561134b5761134a611f9c565b5b82600381111561135e5761135d611f9c565b5b03611395576040517ff645eedf00000000000000000000000000000000000000000000000000000000815260040160405180910390fd5b600260038111156113a9576113a8611f9c565b5b8260038111156113bc576113bb611f9c565b5b03611401578060001c6040517ffce698f70000000000000000000000000000000000000000000000000000000081526004016113f891906119cd565b60405180910390fd5b60038081111561141457611413611f9c565b5b82600381111561142757611426611f9c565b5b0361146957806040517fd78bce0c0000000000000000000000000000000000000000000000000000000081526004016114609190611a8b565b60405180910390fd5b5b5050565b611479838383611588565b600073ffffffffffffffffffffffffffffffffffffffff168373ffffffffffffffffffffffffffffffffffffffff160361150f5760006114b7610486565b905060006114c3610444565b90508181111561150c5780826040517f9e79f854000000000000000000000000000000000000000000000000000000008152600401611503929190611fcb565b60405180910390fd5b50505b505050565b60606000611521836117ad565b90506000602067ffffffffffffffff8111156115405761153f611e14565b5b6040519080825280601f01601f1916602001820160405280156115725781602001600182028036833780820191505090505b5090508181528360208201528092505050919050565b600073ffffffffffffffffffffffffffffffffffffffff168373ffffffffffffffffffffffffffffffffffffffff16036115da5780600260008282546115ce9190612023565b925050819055506116ad565b60008060008573ffffffffffffffffffffffffffffffffffffffff1673ffffffffffffffffffffffffffffffffffffffff16815260200190815260200160002054905081811015611666578381836040517fe450d38c00000000000000000000000000000000000000000000000000000000815260040161165d93929190611ecd565b60405180910390fd5b8181036000808673ffffffffffffffffffffffffffffffffffffffff1673ffffffffffffffffffffffffffffffffffffffff16815260200190815260200160002081905550505b600073ffffffffffffffffffffffffffffffffffffffff168273ffffffffffffffffffffffffffffffffffffffff16036116f65780600260008282540392505081905550611743565b806000808473ffffffffffffffffffffffffffffffffffffffff1673ffffffffffffffffffffffffffffffffffffffff168152602001908152602001600020600082825401925050819055505b8173ffffffffffffffffffffffffffffffffffffffff168373ffffffffffffffffffffffffffffffffffffffff167fddf252ad1be2c89b69c2b068fc378daa952ba7f163c4a11628f55a4df523b3ef836040516117a091906119cd565b60405180910390a3505050565b60008060ff8360001c169050601f8111156117f4576040517fb3512b0c00000000000000000000000000000000000000000000000000000000815260040160405180910390fd5b80915050919050565b600081519050919050565b600082825260208201905092915050565b60005b8381101561183757808201518184015260208101905061181c565b60008484015250505050565b6000601f19601f8301169050919050565b600061185f826117fd565b6118698185611808565b9350611879818560208601611819565b61188281611843565b840191505092915050565b600060208201905081810360008301526118a78184611854565b905092915050565b600080fd5b600073ffffffffffffffffffffffffffffffffffffffff82169050919050565b60006118df826118b4565b9050919050565b6118ef816118d4565b81146118fa57600080fd5b50565b60008135905061190c816118e6565b92915050565b6000819050919050565b61192581611912565b811461193057600080fd5b50565b6000813590506119428161191c565b92915050565b6000806040838503121561195f5761195e6118af565b5b600061196d858286016118fd565b925050602061197e85828601611933565b9150509250929050565b60008115159050919050565b61199d81611988565b82525050565b60006020820190506119b86000830184611994565b92915050565b6119c781611912565b82525050565b60006020820190506119e260008301846119be565b92915050565b600080600060608486031215611a0157611a006118af565b5b6000611a0f868287016118fd565b9350506020611a20868287016118fd565b9250506040611a3186828701611933565b9150509250925092565b600060ff82169050919050565b611a5181611a3b565b82525050565b6000602082019050611a6c6000830184611a48565b92915050565b6000819050919050565b611a8581611a72565b82525050565b6000602082019050611aa06000830184611a7c565b92915050565b600060208284031215611abc57611abb6118af565b5b6000611aca848285016118fd565b91505092915050565b60007fff0000000000000000000000000000000000000000000000000000000000000082169050919050565b611b0881611ad3565b82525050565b611b17816118d4565b82525050565b600081519050919050565b600082825260208201905092915050565b6000819050602082019050919050565b611b5281611912565b82525050565b6000611b648383611b49565b60208301905092915050565b6000602082019050919050565b6000611b8882611b1d565b611b928185611b28565b9350611b9d83611b39565b8060005b83811015611bce578151611bb58882611b58565b9750611bc083611b70565b925050600181019050611ba1565b5085935050505092915050565b600060e082019050611bf0600083018a611aff565b8181036020830152611c028189611854565b90508181036040830152611c168188611854565b9050611c2560608301876119be565b611c326080830186611b0e565b611c3f60a0830185611a7c565b81810360c0830152611c518184611b7d565b905098975050505050505050565b6000602082019050611c746000830184611b0e565b92915050565b611c8381611a3b565b8114611c8e57600080fd5b50565b600081359050611ca081611c7a565b92915050565b611caf81611a72565b8114611cba57600080fd5b50565b600081359050611ccc81611ca6565b92915050565b600080600080600080600060e0888a031215611cf157611cf06118af565b5b6000611cff8a828b016118fd565b9750506020611d108a828b016118fd565b9650506040611d218a828b01611933565b9550506060611d328a828b01611933565b9450506080611d438a828b01611c91565b93505060a0611d548a828b01611cbd565b92505060c0611d658a828b01611cbd565b91505092959891949750929550565b60008060408385031215611d8b57611d8a6118af565b5b6000611d99858286016118fd565b9250506020611daa858286016118fd565b9150509250929050565b7f4e487b7100000000000000000000000000000000000000000000000000000000600052602260045260246000fd5b60006002820490506001821680611dfb57607f821691505b602082108103611e0e57611e0d611db4565b5b50919050565b7f4e487b7100000000000000000000000000000000000000000000000000000000600052604160045260246000fd5b600060c082019050611e586000830189611a7c565b611e656020830188611b0e565b611e726040830187611b0e565b611e7f60608301866119be565b611e8c60808301856119be565b611e9960a08301846119be565b979650505050505050565b6000604082019050611eb96000830185611b0e565b611ec66020830184611b0e565b9392505050565b6000606082019050611ee26000830186611b0e565b611eef60208301856119be565b611efc60408301846119be565b949350505050565b600060a082019050611f196000830188611a7c565b611f266020830187611a7c565b611f336040830186611a7c565b611f4060608301856119be565b611f4d6080830184611b0e565b9695505050505050565b6000608082019050611f6c6000830187611a7c565b611f796020830186611a48565b611f866040830185611a7c565b611f936060830184611a7c565b95945050505050565b7f4e487b7100000000000000000000000000000000000000000000000000000000600052602160045260246000fd5b6000604082019050611fe060008301856119be565b611fed60208301846119be565b9392505050565b7f4e487b7100000000000000000000000000000000000000000000000000000000600052601160045260246000fd5b600061202e82611912565b915061203983611912565b925082820190508082111561205157612050611ff4565b5b9291505056fea2646970667358221220693a364ac43c358ca651b781fff89aec3ff6fc505d2b746b9d4c6547c12f0f7564736f6c63430008140033",
  "linkReferences": {},
  "deployedLinkReferences": {}
}