{
  "_format": "hh-sol-artifact-1",
  "contractName": "MRToken",
  "sourceName": "contracts/MRToken.sol",
  "abi": [
    {
      "inputs": [
        {
          "internalType": "address",
          "name": "initialOwner",
          "type": "address"
        }
      ],
      "stateMutability": "nonpayable",
      "type": "constructor"
    },
    {
      "inputs": [],
      "name": "ECDSAInvalidSignature",
      "type": "error"
    },
    {
      "inputs": [
        {
          "internalType": "uint256",
          "name": "length",
          "type": "uint256"
        }
      ],
      "name": "ECDSAInvalidSignatureLength",
      "type": "error"
    },
    {
      "inputs": [
        {
          "internalType": "bytes32",
          "name": "s",
          "type": "bytes32"
        }
      ],
      "name": "ECDSAInvalidSignatureS",
      "type": "error"
    },
    {
      "inputs": [
        {
          "internalType": "uint256",
          "name": "increasedSupply",
          "type": "uint256"
        },
        {
          "internalType": "uint256",
          "name": "cap",
          "type": "uint256"
        }
      ],
      "name": "ERC20ExceededCap",
      "type": "error"
    },
    {
      "inputs": [
        {
          "internalType": "address",
          "name": "spender",
          "type": "address"
        },
        {
          "internalType": "uint256",
          "name": "allowance",
          "type": "uint256"
        },
        {
          "internalType": "uint256",
          "name": "needed",
          "type": "uint256"
        }
      ],
      "name": "ERC20InsufficientAllowance",
      "type": "error"
    },
    {
      "inputs": [
        {
          "internalType": "address",
          "name": "sender",
          "type": "address"
        },
        {
          "internalType": "uint256",
          "name": "balance",
          "type": "uint256"
        },
        {
          "internalType": "uint256",
          "name": "needed",
          "type": "uint256"
        }
      ],
      "name": "ERC20InsufficientBalance",
      "type": "error"
    },
    {
      "inputs": [
        {
          "internalType": "address",
          "name": "approver",
          "type": "address"
        }
      ],
      "name": "ERC20InvalidApprover",
      "type": "error"
    },
    {
      "inputs": [
        {
          "internalType": "uint256",
          "name": "cap",
          "type": "uint256"
        }
      ],
      "name": "ERC20InvalidCap",
      "type": "error"
    },
    {
      "inputs": [
        {
          "internalType": "address",
          "name": "receiver",
          "type": "address"
        }
      ],
      "name": "ERC20InvalidReceiver",
      "type": "error"
    },
    {
      "inputs": [
        {
          "internalType": "address",
          "name": "sender",
          "type": "address"
        }
      ],
      "name": "ERC20InvalidSender",
      "type": "error"
    },
    {
      "inputs": [
        {
          "internalType": "address",
          "name": "spender",
          "type": "address"
        }
      ],
      "name": "ERC20InvalidSpender",
      "type": "error"
    },
    {
      "inputs": [
        {
          "internalType": "uint256",
          "name": "deadline",
          "type": "uint256"
        }
      ],
      "name": "ERC2612ExpiredSignature",
      "type": "error"
    },
    {
      "inputs": [
        {
          "internalType": "address",
          "name": "signer",
          "type": "address"
        },
        {
          "internalType": "address",
          "name": "owner",
          "type": "address"
        }
      ],
      "name": "ERC2612InvalidSigner",
      "type": "error"
    },
    {
      "inputs": [
        {
          "internalType": "address",
          "name": "account",
          "type": "address"
        },
        {
          "internalType": "uint256",
          "name": "currentNonce",
          "type": "uint256"
        }
      ],
      "name": "InvalidAccountNonce",
      "type": "error"
    },
    {
      "inputs": [],
      "name": "InvalidShortString",
      "type": "error"
    },
    {
      "inputs": [
        {
          "internalType": "address",
          "name": "owner",
          "type": "address"
        }
      ],
      "name": "OwnableInvalidOwner",
      "type": "error"
    },
    {
      "inputs": [
        {
          "internalType": "address",
          "name": "account",
          "type": "address"
        }
      ],
      "name": "OwnableUnauthorizedAccount",
      "type": "error"
    },
    {
      "inputs": [
        {
          "internalType": "string",
          "name": "str",
          "type": "string"
        }
      ],
      "name": "StringTooLong",
      "type": "error"
    },
    {
      "anonymous": false,
      "inputs": [
        {
          "indexed": true,
          "internalType": "address",
          "name": "owner",
          "type": "address"
        },
        {
          "indexed": true,
          "internalType": "address",
          "name": "spender",
          "type": "address"
        },
        {
          "indexed": false,
          "internalType": "uint256",
          "name": "value",
          "type": "uint256"
        }
      ],
      "name": "Approval",
      "type": "event"
    },
    {
      "anonymous": false,
      "inputs": [],
      "name": "EIP712DomainChanged",
      "type": "event"
    },
    {
      "anonymous": false,
      "inputs": [
        {
          "indexed": true,
          "internalType": "address",
          "name": "previousOwner",
          "type": "address"
        },
        {
          "indexed": true,
          "internalType": "address",
          "name": "newOwner",
          "type": "address"
        }
      ],
      "name": "OwnershipTransferred",
      "type": "event"
    },
    {
      "anonymous": false,
      "inputs": [
        {
          "indexed": true,
          "internalType": "address",
          "name": "from",
          "type": "address"
        },
        {
          "indexed": true,
          "internalType": "address",
          "name": "to",
          "type": "address"
        },
        {
          "indexed": false,
          "internalType": "uint256",
          "name": "value",
          "type": "uint256"
        }
      ],
      "name": "Transfer",
      "type": "event"
    },
    {
      "inputs": [],
      "name": "DOMAIN_SEPARATOR",
      "outputs": [
        {
          "internalType": "bytes32",
          "name": "",
          "type": "bytes32"
        }
      ],
      "stateMutability": "view",
      "type": "function"
    },
    {
      "inputs": [
        {
          "internalType": "address",
          "name": "owner",
          "type": "address"
        },
        {
          "internalType": "address",
          "name": "spender",
          "type": "address"
        }
      ],
      "name": "allowance",
      "outputs": [
        {
          "internalType": "uint256",
          "name": "",
          "type": "uint256"
        }
      ],
      "stateMutability": "view",
      "type": "function"
    },
    {
      "inputs": [
        {
          "internalType": "address",
          "name": "spender",
          "type": "address"
        },
        {
          "internalType": "uint256",
          "name": "value",
          "type": "uint256"
        }
      ],
      "name": "approve",
      "outputs": [
        {
          "internalType": "bool",
          "name": "",
          "type": "bool"
        }
      ],
      "stateMutability": "nonpayable",
      "type": "function"
    },
    {
      "inputs": [
        {
          "internalType": "address",
          "name": "account",
          "type": "address"
        }
      ],
      "name": "balanceOf",
      "outputs": [
        {
          "internalType": "uint256",
          "name": "",
          "type": "uint256"
        }
      ],
      "stateMutability": "view",
      "type": "function"
    },
    {
      "inputs": [],
      "name": "cap",
      "outputs": [
        {
          "internalType": "uint256",
          "name": "",
          "type": "uint256"
        }
      ],
      "stateMutability": "view",
      "type": "function"
    },
    {
      "inputs": [],
      "name": "decimals",
      "outputs": [
        {
          "internalType": "uint8",
          "name": "",
          "type": "uint8"
        }
      ],
      "stateMutability": "view",
      "type": "function"
    },
    {
      "inputs": [],
      "name": "eip712Domain",
      "outputs": [
        {
          "internalType": "bytes1",
          "name": "fields",
          "type": "bytes1"
        },
        {
          "internalType": "string",
          "name": "name",
          "type": "string"
        },
        {
          "internalType": "string",
          "name": "version",
          "type": "string"
        },
        {
          "internalType": "uint256",
          "name": "chainId",
          "type": "uint256"
        },
        {
          "internalType": "address",
          "name": "verifyingContract",
          "type": "address"
        },
        {
          "internalType": "bytes32",
          "name": "salt",
          "type": "bytes32"
        },
        {
          "internalType": "uint256[]",
          "name": "extensions",
          "type": "uint256[]"
        }
      ],
      "stateMutability": "view",
      "type": "function"
    },
    {
      "inputs": [
        {
          "internalType": "address",
          "name": "_to",
          "type": "address"
        },
        {
          "internalType": "uint256",
          "name": "_amount",
          "type": "uint256"
        }
      ],
      "name": "mint",
      "outputs": [],
      "stateMutability": "nonpayable",
      "type": "function"
    },
    {
      "inputs": [],
      "name": "name",
      "outputs": [
        {
          "internalType": "string",
          "name": "",
          "type": "string"
        }
      ],
      "stateMutability": "view",
      "type": "function"
    },
    {
      "inputs": [
        {
          "internalType": "address",
          "name": "owner",
          "type": "address"
        }
      ],
      "name": "nonces",
      "outputs": [
        {
          "internalType": "uint256",
          "name": "",
          "type": "uint256"
        }
      ],
      "stateMutability": "view",
      "type": "function"
    },
    {
      "inputs": [],
      "name": "owner",
      "outputs": [
        {
          "internalType": "address",
          "name": "",
          "type": "address"
        }
      ],
      "stateMutability": "view",
      "type": "function"
    },
    {
      "inputs": [
        {
          "internalType": "address",
          "name": "owner",
          "type": "address"
        },
        {
          "internalType": "address",
          "name": "spender",
          "type": "address"
        },
        {
          "internalType": "uint256",
          "name": "value",
          "type": "uint256"
        },
        {
          "internalType": "uint256",
          "name": "deadline",
          "type": "uint256"
        },
        {
          "internalType": "uint8",
          "name": "v",
          "type": "uint8"
        },
        {
          "internalType": "bytes32",
          "name": "r",
          "type": "bytes32"
        },
        {
          "internalType": "bytes32",
          "name": "s",
          "type": "bytes32"
        }
      ],
      "name": "permit",
      "outputs": [],
      "stateMutability": "nonpayable",
      "type": "function"
    },
    {
      "inputs": [],
      "name": "renounceOwnership",
      "outputs": [],
      "stateMutability": "nonpayable",
      "type": "function"
    },
    {
      "inputs": [],
      "name": "symbol",
      "outputs": [
        {
          "internalType": "string",
          "name": "",
          "type": "string"
        }
      ],
      "stateMutability": "view",
      "type": "function"
    },
    {
      "inputs": [],
      "name": "totalSupply",
      "outputs": [
        {
          "internalType": "uint256",
          "name": "",
          "type": "uint256"
        }
      ],
      "stateMutability": "view",
      "type": "function"
    },
    {
      "inputs": [
        {
          "internalType": "address",
          "name": "to",
          "type": "address"
        },
        {
          "internalType": "uint256",
          "name": "value",
          "type": "uint256"
        }
      ],
      "name": "transfer",
      "outputs": [
        {
          "internalType": "bool",
          "name": "",
          "type": "bool"
        }
      ],
      "stateMutability": "nonpayable",
      "type": "function"
    },
    {
      "inputs": [
        {
          "internalType": "address",
          "name": "from",
          "type": "address"
        },
        {
          "internalType": "address",
          "name": "to",
          "type": "address"
        },
        {
          "internalType": "uint256",
          "name": "value",
          "type": "uint256"
        }
      ],
      "name": "transferFrom",
      "outputs": [
        {
          "internalType": "bool",
          "name": "",
          "type": "bool"
        }
      ],
      "stateMutability": "nonpayable",
      "type": "function"
    },
    {
      "inputs": [
        {
          "internalType": "address",
          "name": "newOwner",
          "type": "address"
        }
      ],
      "name": "transferOwnership",
      "outputs": [],
      "stateMutability": "nonpayable",
      "type": "function"
    }
  ],
  "bytecode": "0x6101806040523480156200001257600080fd5b50604051620018bf380380620018bf8339810160408190526200003591620004d2565b69d3c21bcecceda10000006040518060400160405280600781526020016626a92a37b5b2b760c91b81525080604051806040016040528060018152602001603160f81b815250846040518060400160405280600781526020016626a92a37b5b2b760c91b8152506040518060400160405280600381526020016213549560ea1b8152508160039081620000c99190620005a8565b506004620000d88282620005a8565b5050506001600160a01b0381166200010b57604051631e4fbdf760e01b8152600060048201526024015b60405180910390fd5b620001168162000214565b506200012482600662000266565b610120526200013581600762000266565b61014052815160208084019190912060e052815190820120610100524660a052620001c360e05161010051604080517f8b73c3c69bb8fe3d512ecc4cf759cc79239f7b179b0ffacaa9a75d522b39400f60208201529081019290925260608201524660808201523060a082015260009060c00160405160208183030381529060405280519060200120905090565b60805250503060c052506000819003620001f45760405163392e1e2760e01b81526000600482015260240162000102565b610160526200020d33683635c9adc5dea000006200029f565b506200070b565b600580546001600160a01b038381166001600160a01b0319831681179093556040519116919082907f8be0079c531659141344cd1fd0a4f28419497f9722a3daafe3b4186f6b6457e090600090a35050565b600060208351101562000286576200027e83620002dd565b905062000299565b81620002938482620005a8565b5060ff90505b92915050565b6001600160a01b038216620002cb5760405163ec442f0560e01b81526000600482015260240162000102565b620002d96000838362000320565b5050565b600080829050601f815111156200030b578260405163305a27a960e01b815260040162000102919062000674565b80516200031882620006c4565b179392505050565b6200032d83838362000332565b505050565b6200033f8383836200039f565b6001600160a01b0383166200032d5760006200035b6101605190565b905060006200036960025490565b905081811115620003985760405163279e7e1560e21b8152600481018290526024810183905260440162000102565b5050505050565b6001600160a01b038316620003ce578060026000828254620003c29190620006e9565b90915550620004429050565b6001600160a01b03831660009081526020819052604090205481811015620004235760405163391434e360e21b81526001600160a01b0385166004820152602481018290526044810183905260640162000102565b6001600160a01b03841660009081526020819052604090209082900390555b6001600160a01b03821662000460576002805482900390556200047f565b6001600160a01b03821660009081526020819052604090208054820190555b816001600160a01b0316836001600160a01b03167fddf252ad1be2c89b69c2b068fc378daa952ba7f163c4a11628f55a4df523b3ef83604051620004c591815260200190565b60405180910390a3505050565b600060208284031215620004e557600080fd5b81516001600160a01b0381168114620004fd57600080fd5b9392505050565b634e487b7160e01b600052604160045260246000fd5b600181811c908216806200052f57607f821691505b6020821081036200055057634e487b7160e01b600052602260045260246000fd5b50919050565b601f8211156200032d57600081815260208120601f850160051c810160208610156200057f5750805b601f850160051c820191505b81811015620005a0578281556001016200058b565b505050505050565b81516001600160401b03811115620005c457620005c462000504565b620005dc81620005d584546200051a565b8462000556565b602080601f831160018114620006145760008415620005fb5750858301515b600019600386901b1c1916600185901b178555620005a0565b600085815260208120601f198616915b82811015620006455788860151825594840194600190910190840162000624565b5085821015620006645787850151600019600388901b60f8161c191681555b5050505050600190811b01905550565b600060208083528351808285015260005b81811015620006a35785810183015185820160400152820162000685565b506000604082860101526040601f19601f8301168501019250505092915050565b80516020808301519190811015620005505760001960209190910360031b1b16919050565b808201808211156200029957634e487b7160e01b600052601160045260246000fd5b60805160a05160c05160e0516101005161012051610140516101605161114762000778600039600081816101920152610c84015260006108d2015260006108a50152600061079801526000610770015260006106cb015260006106f50152600061071f01526111476000f3fe608060405234801561001057600080fd5b50600436106101165760003560e01c8063715018a6116100a257806395d89b411161007157806395d89b411461024d578063a9059cbb14610255578063d505accf14610268578063dd62ed3e1461027b578063f2fde38b146102b457600080fd5b8063715018a6146101fc5780637ecebe001461020457806384b0196e146102175780638da5cb5b1461023257600080fd5b8063313ce567116100e9578063313ce56714610181578063355274ea146101905780633644e515146101b657806340c10f19146101be57806370a08231146101d357600080fd5b806306fdde031461011b578063095ea7b31461013957806318160ddd1461015c57806323b872dd1461016e575b600080fd5b6101236102c7565b6040516101309190610ead565b60405180910390f35b61014c610147366004610ee3565b610359565b6040519015158152602001610130565b6002545b604051908152602001610130565b61014c61017c366004610f0d565b610373565b60405160128152602001610130565b7f0000000000000000000000000000000000000000000000000000000000000000610160565b610160610397565b6101d16101cc366004610ee3565b6103a6565b005b6101606101e1366004610f49565b6001600160a01b031660009081526020819052604090205490565b6101d16103bc565b610160610212366004610f49565b6103d0565b61021f6103ee565b6040516101309796959493929190610f64565b6005546040516001600160a01b039091168152602001610130565b610123610434565b61014c610263366004610ee3565b610443565b6101d1610276366004610ffa565b610451565b61016061028936600461106d565b6001600160a01b03918216600090815260016020908152604080832093909416825291909152205490565b6101d16102c2366004610f49565b610590565b6060600380546102d6906110a0565b80601f0160208091040260200160405190810160405280929190818152602001828054610302906110a0565b801561034f5780601f106103245761010080835404028352916020019161034f565b820191906000526020600020905b81548152906001019060200180831161033257829003601f168201915b5050505050905090565b6000336103678185856105ce565b60019150505b92915050565b6000336103818582856105e0565b61038c85858561065f565b506001949350505050565b60006103a16106be565b905090565b6103ae6107e9565b6103b88282610816565b5050565b6103c46107e9565b6103ce600061084c565b565b6001600160a01b03811660009081526008602052604081205461036d565b60006060806000806000606061040261089e565b61040a6108cb565b60408051600080825260208201909252600f60f81b9b939a50919850469750309650945092509050565b6060600480546102d6906110a0565b60003361036781858561065f565b8342111561047a5760405163313c898160e11b8152600481018590526024015b60405180910390fd5b60007f6e71edae12b1b97f4d1f60370fef10105fa2faae0126114a169c64845d6126c98888886104c78c6001600160a01b0316600090815260086020526040902080546001810190915590565b6040805160208101969096526001600160a01b0394851690860152929091166060840152608083015260a082015260c0810186905260e0016040516020818303038152906040528051906020012090506000610522826108f8565b9050600061053282878787610925565b9050896001600160a01b0316816001600160a01b031614610579576040516325c0072360e11b81526001600160a01b0380831660048301528b166024820152604401610471565b6105848a8a8a6105ce565b50505050505050505050565b6105986107e9565b6001600160a01b0381166105c257604051631e4fbdf760e01b815260006004820152602401610471565b6105cb8161084c565b50565b6105db8383836001610953565b505050565b6001600160a01b03838116600090815260016020908152604080832093861683529290522054600019811015610659578181101561064a57604051637dc7a0d960e11b81526001600160a01b03841660048201526024810182905260448101839052606401610471565b61065984848484036000610953565b50505050565b6001600160a01b03831661068957604051634b637e8f60e11b815260006004820152602401610471565b6001600160a01b0382166106b35760405163ec442f0560e01b815260006004820152602401610471565b6105db838383610a28565b6000306001600160a01b037f00000000000000000000000000000000000000000000000000000000000000001614801561071757507f000000000000000000000000000000000000000000000000000000000000000046145b1561074157507f000000000000000000000000000000000000000000000000000000000000000090565b6103a1604080517f8b73c3c69bb8fe3d512ecc4cf759cc79239f7b179b0ffacaa9a75d522b39400f60208201527f0000000000000000000000000000000000000000000000000000000000000000918101919091527f000000000000000000000000000000000000000000000000000000000000000060608201524660808201523060a082015260009060c00160405160208183030381529060405280519060200120905090565b6005546001600160a01b031633146103ce5760405163118cdaa760e01b8152336004820152602401610471565b6001600160a01b0382166108405760405163ec442f0560e01b815260006004820152602401610471565b6103b860008383610a28565b600580546001600160a01b038381166001600160a01b0319831681179093556040519116919082907f8be0079c531659141344cd1fd0a4f28419497f9722a3daafe3b4186f6b6457e090600090a35050565b60606103a17f00000000000000000000000000000000000000000000000000000000000000006006610a33565b60606103a17f00000000000000000000000000000000000000000000000000000000000000006007610a33565b600061036d6109056106be565b8360405161190160f01b8152600281019290925260228201526042902090565b60008060008061093788888888610ade565b9250925092506109478282610bad565b50909695505050505050565b6001600160a01b03841661097d5760405163e602df0560e01b815260006004820152602401610471565b6001600160a01b0383166109a757604051634a1406b160e11b815260006004820152602401610471565b6001600160a01b038085166000908152600160209081526040808320938716835292905220829055801561065957826001600160a01b0316846001600160a01b03167f8c5be1e5ebec7d5bd14f71427d1e84f3dd0314c0f7b2291e5b200ac8c7c3b92584604051610a1a91815260200190565b60405180910390a350505050565b6105db838383610c66565b606060ff8314610a4d57610a4683610cd6565b905061036d565b818054610a59906110a0565b80601f0160208091040260200160405190810160405280929190818152602001828054610a85906110a0565b8015610ad25780601f10610aa757610100808354040283529160200191610ad2565b820191906000526020600020905b815481529060010190602001808311610ab557829003601f168201915b5050505050905061036d565b600080807f7fffffffffffffffffffffffffffffff5d576e7357a4501ddfe92f46681b20a0841115610b195750600091506003905082610ba3565b604080516000808252602082018084528a905260ff891692820192909252606081018790526080810186905260019060a0016020604051602081039080840390855afa158015610b6d573d6000803e3d6000fd5b5050604051601f1901519150506001600160a01b038116610b9957506000925060019150829050610ba3565b9250600091508190505b9450945094915050565b6000826003811115610bc157610bc16110da565b03610bca575050565b6001826003811115610bde57610bde6110da565b03610bfc5760405163f645eedf60e01b815260040160405180910390fd5b6002826003811115610c1057610c106110da565b03610c315760405163fce698f760e01b815260048101829052602401610471565b6003826003811115610c4557610c456110da565b036103b8576040516335e2f38360e21b815260048101829052602401610471565b610c71838383610d15565b6001600160a01b0383166105db576002547f00000000000000000000000000000000000000000000000000000000000000009081811115610ccf5760405163279e7e1560e21b81526004810182905260248101839052604401610471565b5050505050565b60606000610ce383610e3f565b604080516020808252818301909252919250600091906020820181803683375050509182525060208101929092525090565b6001600160a01b038316610d40578060026000828254610d3591906110f0565b90915550610db29050565b6001600160a01b03831660009081526020819052604090205481811015610d935760405163391434e360e21b81526001600160a01b03851660048201526024810182905260448101839052606401610471565b6001600160a01b03841660009081526020819052604090209082900390555b6001600160a01b038216610dce57600280548290039055610ded565b6001600160a01b03821660009081526020819052604090208054820190555b816001600160a01b0316836001600160a01b03167fddf252ad1be2c89b69c2b068fc378daa952ba7f163c4a11628f55a4df523b3ef83604051610e3291815260200190565b60405180910390a3505050565b600060ff8216601f81111561036d57604051632cd44ac360e21b815260040160405180910390fd5b6000815180845260005b81811015610e8d57602081850181015186830182015201610e71565b506000602082860101526020601f19601f83011685010191505092915050565b602081526000610ec06020830184610e67565b9392505050565b80356001600160a01b0381168114610ede57600080fd5b919050565b60008060408385031215610ef657600080fd5b610eff83610ec7565b946020939093013593505050565b600080600060608486031215610f2257600080fd5b610f2b84610ec7565b9250610f3960208501610ec7565b9150604084013590509250925092565b600060208284031215610f5b57600080fd5b610ec082610ec7565b60ff60f81b881681526000602060e081840152610f8460e084018a610e67565b8381036040850152610f96818a610e67565b606085018990526001600160a01b038816608086015260a0850187905284810360c0860152855180825283870192509083019060005b81811015610fe857835183529284019291840191600101610fcc565b50909c9b505050505050505050505050565b600080600080600080600060e0888a03121561101557600080fd5b61101e88610ec7565b965061102c60208901610ec7565b95506040880135945060608801359350608088013560ff8116811461105057600080fd5b9699959850939692959460a0840135945060c09093013592915050565b6000806040838503121561108057600080fd5b61108983610ec7565b915061109760208401610ec7565b90509250929050565b600181811c908216806110b457607f821691505b6020821081036110d457634e487b7160e01b600052602260045260246000fd5b50919050565b634e487b7160e01b600052602160045260246000fd5b8082018082111561036d57634e487b7160e01b600052601160045260246000fdfea264697066735822122022e5bb84dcaaa547190b1ccc342e3cc8f56de1c8e5b9b4c62977e3673efb7f8d64736f6c63430008140033",
  "linkReferences": {},
  "deployedLinkReferences": {}
}